:100000000C9434000C9446000C9446000C9446006A
:100010000C9446000C9446000C9446000C94460048
:100020000C9446000C9446000C9446000C94460038
:100030000C9446000C9446000C9446000C94460028
:100040000C9446000C9446000C9446000C94460018
:100050000C9446000C9446000C9446000C94460008
:100060000C9446000C94460011241FBECFEFD8E03C
:10007000DEBFCDBF21E0A0E0B1E001C01D92A23003
:10008000B207E1F70E944F000C947A000C94000034
:10009000559A14BC15BC85B5836085BD08950E9432
:1000A000480060E070E0AB0120E2A89B0AC08091AC
:1000B000000190910101019690930101809300014C
:1000C000A89A8091000190910101A0E0B0E0841B0A
:1000D000950BA60BB70B883E9340A105B10528F3FD
:1000E0008BB182278BB9409100015091010160E0F2
:0800F00070E0DBCFF894FFCFB4
:00000001FF
