:100000000C9434000C943E000C943E000C943E0082
:100010000C943E000C943E000C943E000C943E0068
:100020000C943E000C943E000C943E000C943E0058
:100030000C943E000C943E000C943E000C943E0048
:100040000C943E000C943E000C943E000C943E0038
:100050000C943E000C943E000C943E000C943E0028
:100060000C943E000C943E0011241FBECFEFD8E04C
:10007000DEBFCDBF0E9440000C9474000C940000C1
:10008000579A559A569A2098289A189B23C05F9A97
:100090002FEF87EA91E6215080409040E1F700C0C1
:1000A00000005F985D9A2FEF87EA91E6215080402B
:1000B0009040E1F700C000005D985E9A2FEF83ED5D
:1000C00090E3215080409040E1F700C000005E982E
:1000D0005F9ADBCF2FEF83E294EF21508040904076
:0C00E000E1F700C00000D1CFF894FFCF82
:00000001FF
