:100000000C9434000C9451000C9451000C94510049
:100010000C9451000C9451000C9451000C9451001C
:100020000C9451000C9451000C9451000C9451000C
:100030000C9451000C9451000C9451000C945100FC
:100040000C9451000C9451000C9451000C945100EC
:100050000C9451000C9451000C9451000C945100DC
:100060000C9451000C94510011241FBECFEFD8E026
:10007000DEBFCDBF11E0A0E0B1E0E8E9F1E002C0F1
:1000800005900D92A230B107D9F721E0A2E0B1E0CE
:1000900001C01D92A330B207E1F70E9459000C94F1
:1000A000CA000C9400008AB1806E8AB92098289A00
:1000B00008950E94530021E041E050E063E070E0C9
:1000C000E2E0F0E018990CC03FEF80E792E0315099
:1000D00080409040E1F700C00000189B209302018F
:1000E00080910001909101018230910549F1A0F4C5
:1000F000892BC1F55D9A8BB18F738BB93FEF87EA7E
:1001000091E6315080409040E1F700C00000E0935C
:100110000001F0930101D6CF0397A1F65F9A8BB14E
:100120008F798BB93FEF83E294EF3150804090405C
:10013000E1F700C000001092000110920101C2CF4F
:100140005E9A8BB18F758BB93FEF83ED90E33150A1
:1001500080409040E1F700C00000409300015093C0
:100160000101B0CF5F9A8BB18F798BB93FEF87EAEE
:1001700091E6315080409040E1F700C0000080914E
:1001800002018130C1F66093000170930101109269
:08019000020198CFF894FFCFA3
:02019800010064
:00000001FF
